{
  "contractName": "CoShoe",
  "abi": [
    {
      "constant": true,
      "inputs": [
        {
          "name": "",
          "type": "uint256"
        }
      ],
      "name": "shoes",
      "outputs": [
        {
          "name": "owner",
          "type": "address"
        },
        {
          "name": "name",
          "type": "string"
        },
        {
          "name": "image",
          "type": "string"
        },
        {
          "name": "sold",
          "type": "bool"
        }
      ],
      "payable": false,
      "stateMutability": "view",
      "type": "function"
    },
    {
      "inputs": [],
      "payable": false,
      "stateMutability": "nonpayable",
      "type": "constructor"
    },
    {
      "constant": true,
      "inputs": [],
      "name": "viewTokenCount",
      "outputs": [
        {
          "name": "",
          "type": "uint256"
        }
      ],
      "payable": false,
      "stateMutability": "view",
      "type": "function"
    },
    {
      "constant": false,
      "inputs": [
        {
          "name": "_name",
          "type": "string"
        },
        {
          "name": "_image",
          "type": "string"
        }
      ],
      "name": "buyShoe",
      "outputs": [],
      "payable": true,
      "stateMutability": "payable",
      "type": "function"
    },
    {
      "constant": true,
      "inputs": [],
      "name": "checkPurchases",
      "outputs": [
        {
          "name": "",
          "type": "bool[]"
        }
      ],
      "payable": false,
      "stateMutability": "view",
      "type": "function"
    }
  ],
  "bytecode": "0x60806040526706f05b59d3b2000060005560006001556000600255606460035534801561002b57600080fd5b506000600190505b60035481116101e157600033905060606040518060400160405280600181526020017f2000000000000000000000000000000000000000000000000000000000000000815250905060606040518060400160405280600181526020017f200000000000000000000000000000000000000000000000000000000000000081525090506000809050600460405180608001604052808673ffffffffffffffffffffffffffffffffffffffff1681526020018581526020018481526020018315158152509080600181540180825580915050906001820390600052602060002090600402016000909192909190915060008201518160000160006101000a81548173ffffffffffffffffffffffffffffffffffffffff021916908373ffffffffffffffffffffffffffffffffffffffff16021790555060208201518160010190805190602001906101839291906101e7565b5060408201518160020190805190602001906101a09291906101e7565b5060608201518160030160006101000a81548160ff021916908315150217905550505050600160025401600281905550505050508080600101915050610033565b5061028c565b828054600181600116156101000203166002900490600052602060002090601f016020900481019282601f1061022857805160ff1916838001178555610256565b82800160010185558215610256579182015b8281111561025557825182559160200191906001019061023a565b5b5090506102639190610267565b5090565b61028991905b8082111561028557600081600090555060010161026d565b5090565b90565b6108848061029b6000396000f3fe60806040526004361061003f5760003560e01c8063540a2f4f14610044578063558a2b8b14610196578063607473cf1461020257806363da245e14610360575b600080fd5b6101946004803603604081101561005a57600080fd5b810190808035906020019064010000000081111561007757600080fd5b82018360208201111561008957600080fd5b803590602001918460018302840111640100000000831117156100ab57600080fd5b91908080601f016020809104026020016040519081016040528093929190818152602001838380828437600081840152601f19601f8201169050808301925050505050505091929192908035906020019064010000000081111561010e57600080fd5b82018360208201111561012057600080fd5b8035906020019184600183028401116401000000008311171561014257600080fd5b91908080601f016020809104026020016040519081016040528093929190818152602001838380828437600081840152601f19601f82011690508083019250505050505050919291929050505061038b565b005b3480156101a257600080fd5b506101ab610554565b6040518080602001828103825283818151815260200191508051906020019060200280838360005b838110156101ee5780820151818401526020810190506101d3565b505050509050019250505060405180910390f35b34801561020e57600080fd5b5061023b6004803603602081101561022557600080fd5b810190808035906020019092919050505061060f565b604051808573ffffffffffffffffffffffffffffffffffffffff1673ffffffffffffffffffffffffffffffffffffffff168152602001806020018060200184151515158152602001838103835286818151815260200191508051906020019080838360005b838110156102bb5780820151818401526020810190506102a0565b50505050905090810190601f1680156102e85780820380516001836020036101000a031916815260200191505b50838103825285818151815260200191508051906020019080838360005b83811015610321578082015181840152602081019050610306565b50505050905090810190601f16801561034e5780820380516001836020036101000a031916815260200191505b50965050505050505060405180910390f35b34801561036c57600080fd5b506103756107a9565b6040518082815260200191505060405180910390f35b60016004805490501115610407576040517f08c379a000000000000000000000000000000000000000000000000000000000815260040180806020018281038252600e8152602001807f4e6f2073686f6573206c6566742e00000000000000000000000000000000000081525060200191505060405180910390fd5b346000541461047e576040517f08c379a00000000000000000000000000000000000000000000000000000000081526004018080602001828103825260208152602001807f56616c7565206973206e6f7420657175616c20746f207468652070726963652e81525060200191505060405180910390fd5b60035460015410156105505760006001600081548092919060010191905055905082600482815481106104ad57fe5b906000526020600020906004020160010190805190602001906104d19291906107b3565b5081600482815481106104e057fe5b906000526020600020906004020160020190805190602001906105049291906107b3565b5060016004828154811061051457fe5b906000526020600020906004020160030160006101000a81548160ff021916908315150217905550600160008154809291906001019190505550505b5050565b60608060008090505b60048054905081101561060a573373ffffffffffffffffffffffffffffffffffffffff166004828154811061058e57fe5b906000526020600020906004020160000160009054906101000a900473ffffffffffffffffffffffffffffffffffffffff1673ffffffffffffffffffffffffffffffffffffffff1614156105fd5760018282815181106105ea57fe5b6020026020010190151590811515815250505b808060010191505061055d565b505090565b6004818154811061061c57fe5b90600052602060002090600402016000915090508060000160009054906101000a900473ffffffffffffffffffffffffffffffffffffffff1690806001018054600181600116156101000203166002900480601f0160208091040260200160405190810160405280929190818152602001828054600181600116156101000203166002900480156106ee5780601f106106c3576101008083540402835291602001916106ee565b820191906000526020600020905b8154815290600101906020018083116106d157829003601f168201915b505050505090806002018054600181600116156101000203166002900480601f01602080910402602001604051908101604052809291908181526020018280546001816001161561010002031660029004801561078c5780601f106107615761010080835404028352916020019161078c565b820191906000526020600020905b81548152906001019060200180831161076f57829003601f168201915b5050505050908060030160009054906101000a900460ff16905084565b6000600254905090565b828054600181600116156101000203166002900490600052602060002090601f016020900481019282601f106107f457805160ff1916838001178555610822565b82800160010185558215610822579182015b82811115610821578251825591602001919060010190610806565b5b50905061082f9190610833565b5090565b61085591905b80821115610851576000816000905550600101610839565b5090565b9056fea165627a7a72305820e12f04b9b24751880d5ce83a4aa794dd28310abed130c92d8a2396f88f7f9fa70029",
  "source": "pragma solidity ^0.5.0;\n\ncontract CoShoe {\n  struct Shoe {\n    address owner;\n    string name;\n    string image;\n    bool sold;\n  }\n\n  uint price = 500000000000000000;\n  uint shoesSold = 0; //number of shoes sold\n  uint allShoes = 0; //number of shoes\n  uint initial_supply = 100; //initial number of tokens to be created\n  //uint numShoes = 0;\nShoe[] public shoes; //holds all the shoes instances\n\n  //mint 100 tokens at the beginning\n  constructor () public {\n    for (uint i = 1; i <= initial_supply; i++ ){\n      address owner_ = msg.sender;\n      string memory name_ = \" \";\n      string memory image_ = \" \";\n      bool sold_ = false;\n\n      shoes.push(Shoe(owner_, name_, image_, sold_));\n      allShoes = allShoes + 1;\n\n    }\n  }\n\n  //count the number of tokens created on deployment using a function\n  function viewTokenCount () public view returns(uint) {\n    return allShoes;\n  }\n  function buyShoe  (string  memory _name, string  memory  _image)  public payable {\n    require (shoes.length <= 1, \"No shoes left.\"); //there should be at least 1 pair of shoes available\n    //require (shoes[1].sold == false, \"All shoes have been sold\");\n    require (price == msg.value, \"Value is not equal to the price.\"); //check to see if the amount being offered is equal to the price\n    if (shoesSold < initial_supply){ //check if you havent sold more shoes than the shoes you have\n      uint id = shoesSold++;  //index the next unsold shoe\n      shoes[id].name = _name;\n      shoes[id].image = _image;\n      shoes[id].sold = true;\n      //shoes.push(Shoe(msg.sender, _name, _image, true)) - 1;\n      shoesSold++;    //increase the shoes sold by 1\n    }\n  }\n\n  function checkPurchases () external view returns(bool[] memory) {\n    bool[] memory checkPur;\n    for ( uint i = 0; i < shoes.length; i++ ) {\n      if (shoes[i].owner == msg.sender) {\n        checkPur[i] = true;\n      }\n    }\n\n  }\n}\n\n",
  "sourcePath": "/Users/thandekachehore/Documents/Fintech Exam/FTC-Exam/Question 2.1/contracts/shoecontract.sol",
  "compiler": {
    "name": "solc",
    "version": "0.5.8+commit.23d335f2.Emscripten.clang"
  },
  "schemaVersion": "3.0.11",
  "updatedAt": "2019-08-05T00:02:03.607Z",
  "devdoc": {
    "methods": {}
  },
  "userdoc": {
    "methods": {}
  }
}